{
  "contractName": "Web3ReactBoilerplate",
  "abi": [
    {
      "inputs": [
        {
          "internalType": "string",
          "name": "baseURI",
          "type": "string"
        }
      ],
      "stateMutability": "nonpayable",
      "type": "constructor"
    },
    {
      "anonymous": false,
      "inputs": [
        {
          "indexed": true,
          "internalType": "address",
          "name": "owner",
          "type": "address"
        },
        {
          "indexed": true,
          "internalType": "address",
          "name": "approved",
          "type": "address"
        },
        {
          "indexed": true,
          "internalType": "uint256",
          "name": "tokenId",
          "type": "uint256"
        }
      ],
      "name": "Approval",
      "type": "event"
    },
    {
      "anonymous": false,
      "inputs": [
        {
          "indexed": true,
          "internalType": "address",
          "name": "owner",
          "type": "address"
        },
        {
          "indexed": true,
          "internalType": "address",
          "name": "operator",
          "type": "address"
        },
        {
          "indexed": false,
          "internalType": "bool",
          "name": "approved",
          "type": "bool"
        }
      ],
      "name": "ApprovalForAll",
      "type": "event"
    },
    {
      "anonymous": false,
      "inputs": [
        {
          "indexed": false,
          "internalType": "uint256",
          "name": "tokenId",
          "type": "uint256"
        },
        {
          "indexed": false,
          "internalType": "address",
          "name": "sender",
          "type": "address"
        }
      ],
      "name": "AssetMinted",
      "type": "event"
    },
    {
      "anonymous": false,
      "inputs": [
        {
          "indexed": true,
          "internalType": "address",
          "name": "previousOwner",
          "type": "address"
        },
        {
          "indexed": true,
          "internalType": "address",
          "name": "newOwner",
          "type": "address"
        }
      ],
      "name": "OwnershipTransferred",
      "type": "event"
    },
    {
      "anonymous": false,
      "inputs": [
        {
          "indexed": false,
          "internalType": "bool",
          "name": "isActive",
          "type": "bool"
        }
      ],
      "name": "SaleActivation",
      "type": "event"
    },
    {
      "anonymous": false,
      "inputs": [
        {
          "indexed": true,
          "internalType": "address",
          "name": "from",
          "type": "address"
        },
        {
          "indexed": true,
          "internalType": "address",
          "name": "to",
          "type": "address"
        },
        {
          "indexed": true,
          "internalType": "uint256",
          "name": "tokenId",
          "type": "uint256"
        }
      ],
      "name": "Transfer",
      "type": "event"
    },
    {
      "inputs": [],
      "name": "allowListMaxMint",
      "outputs": [
        {
          "internalType": "uint256",
          "name": "",
          "type": "uint256"
        }
      ],
      "stateMutability": "view",
      "type": "function"
    },
    {
      "inputs": [
        {
          "internalType": "address",
          "name": "to",
          "type": "address"
        },
        {
          "internalType": "uint256",
          "name": "tokenId",
          "type": "uint256"
        }
      ],
      "name": "approve",
      "outputs": [],
      "stateMutability": "nonpayable",
      "type": "function"
    },
    {
      "inputs": [
        {
          "internalType": "address",
          "name": "owner",
          "type": "address"
        }
      ],
      "name": "balanceOf",
      "outputs": [
        {
          "internalType": "uint256",
          "name": "",
          "type": "uint256"
        }
      ],
      "stateMutability": "view",
      "type": "function"
    },
    {
      "inputs": [
        {
          "internalType": "uint256",
          "name": "tokenId",
          "type": "uint256"
        }
      ],
      "name": "getApproved",
      "outputs": [
        {
          "internalType": "address",
          "name": "",
          "type": "address"
        }
      ],
      "stateMutability": "view",
      "type": "function"
    },
    {
      "inputs": [],
      "name": "isActive",
      "outputs": [
        {
          "internalType": "bool",
          "name": "",
          "type": "bool"
        }
      ],
      "stateMutability": "view",
      "type": "function"
    },
    {
      "inputs": [],
      "name": "isAllowListActive",
      "outputs": [
        {
          "internalType": "bool",
          "name": "",
          "type": "bool"
        }
      ],
      "stateMutability": "view",
      "type": "function"
    },
    {
      "inputs": [
        {
          "internalType": "address",
          "name": "owner",
          "type": "address"
        },
        {
          "internalType": "address",
          "name": "operator",
          "type": "address"
        }
      ],
      "name": "isApprovedForAll",
      "outputs": [
        {
          "internalType": "bool",
          "name": "",
          "type": "bool"
        }
      ],
      "stateMutability": "view",
      "type": "function"
    },
    {
      "inputs": [],
      "name": "maximumAllowedTokensPerPurchase",
      "outputs": [
        {
          "internalType": "uint256",
          "name": "",
          "type": "uint256"
        }
      ],
      "stateMutability": "view",
      "type": "function"
    },
    {
      "inputs": [],
      "name": "maximumAllowedTokensPerWallet",
      "outputs": [
        {
          "internalType": "uint256",
          "name": "",
          "type": "uint256"
        }
      ],
      "stateMutability": "view",
      "type": "function"
    },
    {
      "inputs": [],
      "name": "maximumMintSupply",
      "outputs": [
        {
          "internalType": "uint256",
          "name": "",
          "type": "uint256"
        }
      ],
      "stateMutability": "view",
      "type": "function"
    },
    {
      "inputs": [],
      "name": "mintPrice",
      "outputs": [
        {
          "internalType": "uint256",
          "name": "",
          "type": "uint256"
        }
      ],
      "stateMutability": "view",
      "type": "function"
    },
    {
      "inputs": [],
      "name": "name",
      "outputs": [
        {
          "internalType": "string",
          "name": "",
          "type": "string"
        }
      ],
      "stateMutability": "view",
      "type": "function"
    },
    {
      "inputs": [],
      "name": "owner",
      "outputs": [
        {
          "internalType": "address",
          "name": "",
          "type": "address"
        }
      ],
      "stateMutability": "view",
      "type": "function"
    },
    {
      "inputs": [
        {
          "internalType": "uint256",
          "name": "tokenId",
          "type": "uint256"
        }
      ],
      "name": "ownerOf",
      "outputs": [
        {
          "internalType": "address",
          "name": "",
          "type": "address"
        }
      ],
      "stateMutability": "view",
      "type": "function"
    },
    {
      "inputs": [],
      "name": "presalePrice",
      "outputs": [
        {
          "internalType": "uint256",
          "name": "",
          "type": "uint256"
        }
      ],
      "stateMutability": "view",
      "type": "function"
    },
    {
      "inputs": [],
      "name": "renounceOwnership",
      "outputs": [],
      "stateMutability": "nonpayable",
      "type": "function"
    },
    {
      "inputs": [
        {
          "internalType": "address",
          "name": "from",
          "type": "address"
        },
        {
          "internalType": "address",
          "name": "to",
          "type": "address"
        },
        {
          "internalType": "uint256",
          "name": "tokenId",
          "type": "uint256"
        }
      ],
      "name": "safeTransferFrom",
      "outputs": [],
      "stateMutability": "nonpayable",
      "type": "function"
    },
    {
      "inputs": [
        {
          "internalType": "address",
          "name": "from",
          "type": "address"
        },
        {
          "internalType": "address",
          "name": "to",
          "type": "address"
        },
        {
          "internalType": "uint256",
          "name": "tokenId",
          "type": "uint256"
        },
        {
          "internalType": "bytes",
          "name": "_data",
          "type": "bytes"
        }
      ],
      "name": "safeTransferFrom",
      "outputs": [],
      "stateMutability": "nonpayable",
      "type": "function"
    },
    {
      "inputs": [
        {
          "internalType": "address",
          "name": "operator",
          "type": "address"
        },
        {
          "internalType": "bool",
          "name": "approved",
          "type": "bool"
        }
      ],
      "name": "setApprovalForAll",
      "outputs": [],
      "stateMutability": "nonpayable",
      "type": "function"
    },
    {
      "inputs": [
        {
          "internalType": "bytes4",
          "name": "interfaceId",
          "type": "bytes4"
        }
      ],
      "name": "supportsInterface",
      "outputs": [
        {
          "internalType": "bool",
          "name": "",
          "type": "bool"
        }
      ],
      "stateMutability": "view",
      "type": "function"
    },
    {
      "inputs": [],
      "name": "symbol",
      "outputs": [
        {
          "internalType": "string",
          "name": "",
          "type": "string"
        }
      ],
      "stateMutability": "view",
      "type": "function"
    },
    {
      "inputs": [
        {
          "internalType": "uint256",
          "name": "index",
          "type": "uint256"
        }
      ],
      "name": "tokenByIndex",
      "outputs": [
        {
          "internalType": "uint256",
          "name": "",
          "type": "uint256"
        }
      ],
      "stateMutability": "view",
      "type": "function"
    },
    {
      "inputs": [
        {
          "internalType": "address",
          "name": "owner",
          "type": "address"
        },
        {
          "internalType": "uint256",
          "name": "index",
          "type": "uint256"
        }
      ],
      "name": "tokenOfOwnerByIndex",
      "outputs": [
        {
          "internalType": "uint256",
          "name": "",
          "type": "uint256"
        }
      ],
      "stateMutability": "view",
      "type": "function"
    },
    {
      "inputs": [
        {
          "internalType": "uint256",
          "name": "tokenId",
          "type": "uint256"
        }
      ],
      "name": "tokenURI",
      "outputs": [
        {
          "internalType": "string",
          "name": "",
          "type": "string"
        }
      ],
      "stateMutability": "view",
      "type": "function"
    },
    {
      "inputs": [],
      "name": "totalSupply",
      "outputs": [
        {
          "internalType": "uint256",
          "name": "",
          "type": "uint256"
        }
      ],
      "stateMutability": "view",
      "type": "function"
    },
    {
      "inputs": [
        {
          "internalType": "address",
          "name": "from",
          "type": "address"
        },
        {
          "internalType": "address",
          "name": "to",
          "type": "address"
        },
        {
          "internalType": "uint256",
          "name": "tokenId",
          "type": "uint256"
        }
      ],
      "name": "transferFrom",
      "outputs": [],
      "stateMutability": "nonpayable",
      "type": "function"
    },
    {
      "inputs": [
        {
          "internalType": "address",
          "name": "newOwner",
          "type": "address"
        }
      ],
      "name": "transferOwnership",
      "outputs": [],
      "stateMutability": "nonpayable",
      "type": "function"
    },
    {
      "inputs": [
        {
          "internalType": "uint256",
          "name": "_count",
          "type": "uint256"
        }
      ],
      "name": "setMaximumAllowedTokens",
      "outputs": [],
      "stateMutability": "nonpayable",
      "type": "function"
    },
    {
      "inputs": [
        {
          "internalType": "uint256",
          "name": "_count",
          "type": "uint256"
        }
      ],
      "name": "setMaximumAllowedTokensPerWallet",
      "outputs": [],
      "stateMutability": "nonpayable",
      "type": "function"
    },
    {
      "inputs": [
        {
          "internalType": "bool",
          "name": "val",
          "type": "bool"
        }
      ],
      "name": "setActive",
      "outputs": [],
      "stateMutability": "nonpayable",
      "type": "function"
    },
    {
      "inputs": [
        {
          "internalType": "bool",
          "name": "_isAllowListActive",
          "type": "bool"
        }
      ],
      "name": "setIsAllowListActive",
      "outputs": [],
      "stateMutability": "nonpayable",
      "type": "function"
    },
    {
      "inputs": [
        {
          "internalType": "uint256",
          "name": "maxMint",
          "type": "uint256"
        }
      ],
      "name": "setAllowListMaxMint",
      "outputs": [],
      "stateMutability": "nonpayable",
      "type": "function"
    },
    {
      "inputs": [
        {
          "internalType": "address[]",
          "name": "addresses",
          "type": "address[]"
        }
      ],
      "name": "addToAllowList",
      "outputs": [],
      "stateMutability": "nonpayable",
      "type": "function"
    },
    {
      "inputs": [
        {
          "internalType": "address",
          "name": "addr",
          "type": "address"
        }
      ],
      "name": "checkIfOnAllowList",
      "outputs": [
        {
          "internalType": "bool",
          "name": "",
          "type": "bool"
        }
      ],
      "stateMutability": "view",
      "type": "function"
    },
    {
      "inputs": [
        {
          "internalType": "address[]",
          "name": "addresses",
          "type": "address[]"
        }
      ],
      "name": "removeFromAllowList",
      "outputs": [],
      "stateMutability": "nonpayable",
      "type": "function"
    },
    {
      "inputs": [
        {
          "internalType": "uint256",
          "name": "_price",
          "type": "uint256"
        }
      ],
      "name": "setPrice",
      "outputs": [],
      "stateMutability": "nonpayable",
      "type": "function"
    },
    {
      "inputs": [
        {
          "internalType": "uint256",
          "name": "_price",
          "type": "uint256"
        }
      ],
      "name": "setPresalePrice",
      "outputs": [],
      "stateMutability": "nonpayable",
      "type": "function"
    },
    {
      "inputs": [
        {
          "internalType": "string",
          "name": "baseURI",
          "type": "string"
        }
      ],
      "name": "setBaseURI",
      "outputs": [],
      "stateMutability": "nonpayable",
      "type": "function"
    },
    {
      "inputs": [],
      "name": "getContractOwner",
      "outputs": [
        {
          "internalType": "address",
          "name": "",
          "type": "address"
        }
      ],
      "stateMutability": "view",
      "type": "function"
    },
    {
      "inputs": [
        {
          "internalType": "address",
          "name": "_to",
          "type": "address"
        },
        {
          "internalType": "uint256",
          "name": "_count",
          "type": "uint256"
        }
      ],
      "name": "mint",
      "outputs": [],
      "stateMutability": "payable",
      "type": "function"
    },
    {
      "inputs": [
        {
          "internalType": "uint256",
          "name": "_count",
          "type": "uint256"
        }
      ],
      "name": "preSaleMint",
      "outputs": [],
      "stateMutability": "payable",
      "type": "function"
    }
  ],
  "bytecode": "0x60806040526703da96adbe204000600b55670277513560964000600c55600e805461ffff19169055611e61600f556003601081905560076011556012553480156200004957600080fd5b5060405162002f3838038062002f388339810160408190526200006c9162000254565b604080518082018252601681527f5765623320526561637420426f696c6572706c617465000000000000000000006020808301918252835180850190945260038452622ba92160e91b908401528151919291620000cc91600091620001ae565b508051620000e2906001906020840190620001ae565b505050620000ff620000f96200011160201b60201c565b62000115565b6200010a8162000167565b5062000376565b3390565b600a80546001600160a01b038381166001600160a01b0319831681179093556040519116919082907f8be0079c531659141344cd1fd0a4f28419497f9722a3daafe3b4186f6b6457e090600090a35050565b33620001726200019f565b6001600160a01b0316146200018657600080fd5b80516200019b90600d906020840190620001ae565b5050565b600a546001600160a01b031690565b828054620001bc9062000323565b90600052602060002090601f016020900481019282620001e057600085556200022b565b82601f10620001fb57805160ff19168380011785556200022b565b828001600101855582156200022b579182015b828111156200022b5782518255916020019190600101906200020e565b50620002399291506200023d565b5090565b5b808211156200023957600081556001016200023e565b6000602080838503121562000267578182fd5b82516001600160401b03808211156200027e578384fd5b818501915085601f83011262000292578384fd5b815181811115620002a757620002a762000360565b604051601f8201601f1916810185018381118282101715620002cd57620002cd62000360565b6040528181528382018501881015620002e4578586fd5b8592505b81831015620003075783830185015181840186015291840191620002e8565b818311156200031857858583830101525b979650505050505050565b6002810460018216806200033857607f821691505b602082108114156200035a57634e487b7160e01b600052602260045260246000fd5b50919050565b634e487b7160e01b600052604160045260246000fd5b612bb280620003866000396000f3fe6080604052600436106102455760003560e01c80636817c76c1161013957806395d89b41116100b6578063b88d4fde1161007a578063b88d4fde14610640578063c87b56dd14610660578063cadf881814610680578063e985e9c514610695578063ea6eb836146106b5578063f2fde38b146106d557610245565b806395d89b41146105b65780639a3bf728146105cb578063a22cb465146105e0578063a51312c814610600578063acec338a1461062057610245565b80637835c635116100fd5780637835c635146105395780637a6685f11461054c5780637f44ab2f1461056c5780638da5cb5b1461058157806391b7f5ed1461059657610245565b80636817c76c146104af57806370a08231146104c4578063715018a6146104e4578063718bc4af146104f95780637263cfe21461051957610245565b80632f745c59116101c75780634d0550de1161018b5780634d0550de1461041a5780634dfea6271461042f5780634f6ccce71461044f57806355f804b31461046f5780636352211e1461048f57610245565b80632f745c59146103925780633549345e146103b257806340c10f19146103d257806342842e0e146103e5578063442890d51461040557610245565b806318160ddd1161020e57806318160ddd1461031357806322f3e2d41461032857806323b872dd1461033d57806329fc6bae1461035d5780632c1205f41461037257610245565b80620e7fa81461024a57806301ffc9a71461027557806306fdde03146102a2578063081812fc146102c4578063095ea7b3146102f1575b600080fd5b34801561025657600080fd5b5061025f6106f5565b60405161026c9190612a0c565b60405180910390f35b34801561028157600080fd5b50610295610290366004612105565b6106fb565b60405161026c9190612247565b3480156102ae57600080fd5b506102b7610728565b60405161026c9190612252565b3480156102d057600080fd5b506102e46102df366004612183565b6107ba565b60405161026c91906121f6565b3480156102fd57600080fd5b5061031161030c366004612053565b610806565b005b34801561031f57600080fd5b5061025f61089e565b34801561033457600080fd5b506102956108a4565b34801561034957600080fd5b50610311610358366004611f76565b6108ad565b34801561036957600080fd5b506102956108e5565b34801561037e57600080fd5b5061029561038d366004611f2a565b6108f3565b34801561039e57600080fd5b5061025f6103ad366004612053565b610911565b3480156103be57600080fd5b506103116103cd366004612183565b610963565b6103116103e0366004612053565b610984565b3480156103f157600080fd5b50610311610400366004611f76565b610b5e565b34801561041157600080fd5b506102e4610b79565b34801561042657600080fd5b5061025f610b88565b34801561043b57600080fd5b5061031161044a366004612183565b610b8e565b34801561045b57600080fd5b5061025f61046a366004612183565b610baf565b34801561047b57600080fd5b5061031161048a36600461213d565b610c0a565b34801561049b57600080fd5b506102e46104aa366004612183565b610c3d565b3480156104bb57600080fd5b5061025f610c72565b3480156104d057600080fd5b5061025f6104df366004611f2a565b610c78565b3480156104f057600080fd5b50610311610cbc565b34801561050557600080fd5b506103116105143660046120eb565b610d07565b34801561052557600080fd5b5061031161053436600461207c565b610d3d565b610311610547366004612183565b610efb565b34801561055857600080fd5b50610311610567366004612183565b6110bc565b34801561057857600080fd5b5061025f6110dd565b34801561058d57600080fd5b506102e46110e3565b3480156105a257600080fd5b506103116105b1366004612183565b6110f2565b3480156105c257600080fd5b506102b7611113565b3480156105d757600080fd5b5061025f611122565b3480156105ec57600080fd5b506103116105fb36600461202a565b611128565b34801561060c57600080fd5b5061031161061b36600461207c565b6111f6565b34801561062c57600080fd5b5061031161063b3660046120eb565b6112f0565b34801561064c57600080fd5b5061031161065b366004611fb1565b611355565b34801561066c57600080fd5b506102b761067b366004612183565b611394565b34801561068c57600080fd5b5061025f611417565b3480156106a157600080fd5b506102956106b0366004611f44565b61141d565b3480156106c157600080fd5b506103116106d0366004612183565b61144b565b3480156106e157600080fd5b506103116106f0366004611f2a565b61146c565b600c5481565b60006001600160e01b0319821663780e9d6360e01b14806107205750610720826114dd565b90505b919050565b60606000805461073790612aba565b80601f016020809104026020016040519081016040528092919081815260200182805461076390612aba565b80156107b05780601f10610785576101008083540402835291602001916107b0565b820191906000526020600020905b81548152906001019060200180831161079357829003601f168201915b5050505050905090565b60006107c58261151d565b6107ea5760405162461bcd60e51b81526004016107e190612670565b60405180910390fd5b506000908152600460205260409020546001600160a01b031690565b600061081182610c3d565b9050806001600160a01b0316836001600160a01b031614156108455760405162461bcd60e51b81526004016107e1906127f7565b806001600160a01b031661085761153a565b6001600160a01b031614806108735750610873816106b061153a565b61088f5760405162461bcd60e51b81526004016107e19061254b565b610899838361153e565b505050565b60085490565b600e5460ff1681565b6108be6108b861153a565b826115ac565b6108da5760405162461bcd60e51b81526004016107e190612868565b610899838383611631565b600e54610100900460ff1681565b6001600160a01b031660009081526013602052604090205460ff1690565b600061091c83610c78565b821061093a5760405162461bcd60e51b81526004016107e19061230a565b506001600160a01b03919091166000908152600660209081526040808320938352929052205490565b3361096c6110e3565b6001600160a01b03161461097f57600080fd5b600c55565b600f5461098f61089e565b11156109ad5760405162461bcd60e51b81526004016107e19061245b565b6109b56110e3565b6001600160a01b0316336001600160a01b0316146109ef57600e5460ff166109ef5760405162461bcd60e51b81526004016107e1906122d3565b6109f76110e3565b6001600160a01b0316826001600160a01b031614610a445760115481610a1c84610c78565b610a269190612a2c565b1115610a445760405162461bcd60e51b81526004016107e190612424565b600f5481610a5061089e565b610a5a9190612a2c565b1115610a785760405162461bcd60e51b81526004016107e190612838565b600f54610a8361089e565b1115610aa15760405162461bcd60e51b81526004016107e190612905565b601054811115610ac35760405162461bcd60e51b81526004016107e1906127c0565b80600b54610ad19190612a58565b341015610af05760405162461bcd60e51b81526004016107e190612932565b60005b81811015610899577f55f284809f4c5b7377fbe62f2feeb9686e3834dcae5f3ca955140fe6547cd355610b2461089e565b84604051610b33929190612a15565b60405180910390a1610b4c83610b4761089e565b61175e565b80610b5681612af5565b915050610af3565b61089983838360405180602001604052806000815250611355565b6000610b836110e3565b905090565b600f5481565b33610b976110e3565b6001600160a01b031614610baa57600080fd5b601055565b6000610bb961089e565b8210610bd75760405162461bcd60e51b81526004016107e1906128b9565b60088281548110610bf857634e487b7160e01b600052603260045260246000fd5b90600052602060002001549050919050565b33610c136110e3565b6001600160a01b031614610c2657600080fd5b8051610c3990600d906020840190611dfa565b5050565b6000818152600260205260408120546001600160a01b0316806107205760405162461bcd60e51b81526004016107e1906125f2565b600b5481565b60006001600160a01b038216610ca05760405162461bcd60e51b81526004016107e1906125a8565b506001600160a01b031660009081526003602052604090205490565b610cc461153a565b6001600160a01b0316610cd56110e3565b6001600160a01b031614610cfb5760405162461bcd60e51b81526004016107e1906126f3565b610d056000611778565b565b33610d106110e3565b6001600160a01b031614610d2357600080fd5b600e80549115156101000261ff0019909216919091179055565b33610d466110e3565b6001600160a01b031614610d5957600080fd5b60005b81811015610899576000838383818110610d8657634e487b7160e01b600052603260045260246000fd5b9050602002016020810190610d9b9190611f2a565b6001600160a01b03161415610dc25760405162461bcd60e51b81526004016107e1906126bc565b600160136000858585818110610de857634e487b7160e01b600052603260045260246000fd5b9050602002016020810190610dfd9190611f2a565b6001600160a01b0316815260208101919091526040016000908120805460ff191692151592909217909155601481858585818110610e4b57634e487b7160e01b600052603260045260246000fd5b9050602002016020810190610e609190611f2a565b6001600160a01b03166001600160a01b031681526020019081526020016000205411610e8d576000610ee8565b60146000848484818110610eb157634e487b7160e01b600052603260045260246000fd5b9050602002016020810190610ec69190611f2a565b6001600160a01b03166001600160a01b03168152602001908152602001600020545b5080610ef381612af5565b915050610d5c565b600f54610f0661089e565b1115610f245760405162461bcd60e51b81526004016107e19061245b565b600e54610100900460ff16610f4b5760405162461bcd60e51b81526004016107e190612265565b3360009081526013602052604090205460ff16610f7a5760405162461bcd60e51b81526004016107e19061229c565b600f54610f8561089e565b10610fa25760405162461bcd60e51b81526004016107e1906129a0565b601254811115610fc45760405162461bcd60e51b81526004016107e1906129d7565b60125433600090815260146020526040902054610fe2908390612a2c565b11156110005760405162461bcd60e51b81526004016107e190612969565b80600c5461100e9190612a58565b34101561102d5760405162461bcd60e51b81526004016107e190612932565b60005b81811015610c3957336000908152601460205260408120805460019290611058908490612a2c565b909155507f55f284809f4c5b7377fbe62f2feeb9686e3834dcae5f3ca955140fe6547cd355905061108761089e565b33604051611096929190612a15565b60405180910390a16110aa33610b4761089e565b806110b481612af5565b915050611030565b336110c56110e3565b6001600160a01b0316146110d857600080fd5b601255565b60125481565b600a546001600160a01b031690565b336110fb6110e3565b6001600160a01b03161461110e57600080fd5b600b55565b60606001805461073790612aba565b60105481565b61113061153a565b6001600160a01b0316826001600160a01b031614156111615760405162461bcd60e51b81526004016107e1906124c8565b806005600061116e61153a565b6001600160a01b03908116825260208083019390935260409182016000908120918716808252919093529120805460ff1916921515929092179091556111b261153a565b6001600160a01b03167f17307eab39ab6107e8899845ad3d59bd9653f200f220920489ca2b5937696c31836040516111ea9190612247565b60405180910390a35050565b336111ff6110e3565b6001600160a01b03161461121257600080fd5b60005b8181101561089957600083838381811061123f57634e487b7160e01b600052603260045260246000fd5b90506020020160208101906112549190611f2a565b6001600160a01b0316141561127b5760405162461bcd60e51b81526004016107e1906126bc565b6000601360008585858181106112a157634e487b7160e01b600052603260045260246000fd5b90506020020160208101906112b69190611f2a565b6001600160a01b031681526020810191909152604001600020805460ff1916911515919091179055806112e881612af5565b915050611215565b336112f96110e3565b6001600160a01b03161461130c57600080fd5b600e805460ff19168215151790556040517f58655b75d3df612fe99ead00dbf0812d415d35078fe06217a94c0818bb13967f9061134a908390612247565b60405180910390a150565b61136661136061153a565b836115ac565b6113825760405162461bcd60e51b81526004016107e190612868565b61138e848484846117ca565b50505050565b606061139f8261151d565b6113bb5760405162461bcd60e51b81526004016107e190612771565b60006113c56117fd565b905060008151116113e55760405180602001604052806000815250611410565b806113ef8461180c565b6040516020016114009291906121c7565b6040516020818303038152906040525b9392505050565b60115481565b6001600160a01b03918216600090815260056020908152604080832093909416825291909152205460ff1690565b336114546110e3565b6001600160a01b03161461146757600080fd5b601155565b61147461153a565b6001600160a01b03166114856110e3565b6001600160a01b0316146114ab5760405162461bcd60e51b81526004016107e1906126f3565b6001600160a01b0381166114d15760405162461bcd60e51b81526004016107e1906123a7565b6114da81611778565b50565b60006001600160e01b031982166380ac58cd60e01b148061150e57506001600160e01b03198216635b5e139f60e01b145b80610720575061072082611927565b6000908152600260205260409020546001600160a01b0316151590565b3390565b600081815260046020526040902080546001600160a01b0319166001600160a01b038416908117909155819061157382610c3d565b6001600160a01b03167f8c5be1e5ebec7d5bd14f71427d1e84f3dd0314c0f7b2291e5b200ac8c7c3b92560405160405180910390a45050565b60006115b78261151d565b6115d35760405162461bcd60e51b81526004016107e1906124ff565b60006115de83610c3d565b9050806001600160a01b0316846001600160a01b031614806116195750836001600160a01b031661160e846107ba565b6001600160a01b0316145b806116295750611629818561141d565b949350505050565b826001600160a01b031661164482610c3d565b6001600160a01b03161461166a5760405162461bcd60e51b81526004016107e190612728565b6001600160a01b0382166116905760405162461bcd60e51b81526004016107e190612484565b61169b838383611940565b6116a660008261153e565b6001600160a01b03831660009081526003602052604081208054600192906116cf908490612a77565b90915550506001600160a01b03821660009081526003602052604081208054600192906116fd908490612a2c565b909155505060008181526002602052604080822080546001600160a01b0319166001600160a01b0386811691821790925591518493918716917fddf252ad1be2c89b69c2b068fc378daa952ba7f163c4a11628f55a4df523b3ef91a4505050565b610c398282604051806020016040528060008152506119c9565b600a80546001600160a01b038381166001600160a01b0319831681179093556040519116919082907f8be0079c531659141344cd1fd0a4f28419497f9722a3daafe3b4186f6b6457e090600090a35050565b6117d5848484611631565b6117e1848484846119fc565b61138e5760405162461bcd60e51b81526004016107e190612355565b6060600d805461073790612aba565b60608161183157506040805180820190915260018152600360fc1b6020820152610723565b8160005b811561185b578061184581612af5565b91506118549050600a83612a44565b9150611835565b60008167ffffffffffffffff81111561188457634e487b7160e01b600052604160045260246000fd5b6040519080825280601f01601f1916602001820160405280156118ae576020820181803683370190505b5090505b8415611629576118c3600183612a77565b91506118d0600a86612b10565b6118db906030612a2c565b60f81b8183815181106118fe57634e487b7160e01b600052603260045260246000fd5b60200101906001600160f81b031916908160001a905350611920600a86612a44565b94506118b2565b6001600160e01b031981166301ffc9a760e01b14919050565b61194b838383610899565b6001600160a01b0383166119675761196281611b17565b61198a565b816001600160a01b0316836001600160a01b03161461198a5761198a8382611b5b565b6001600160a01b0382166119a6576119a181611bf8565b610899565b826001600160a01b0316826001600160a01b031614610899576108998282611cd1565b6119d38383611d15565b6119e060008484846119fc565b6108995760405162461bcd60e51b81526004016107e190612355565b6000611a10846001600160a01b0316611df4565b15611b0c57836001600160a01b031663150b7a02611a2c61153a565b8786866040518563ffffffff1660e01b8152600401611a4e949392919061220a565b602060405180830381600087803b158015611a6857600080fd5b505af1925050508015611a98575060408051601f3d908101601f19168201909252611a9591810190612121565b60015b611af2573d808015611ac6576040519150601f19603f3d011682016040523d82523d6000602084013e611acb565b606091505b508051611aea5760405162461bcd60e51b81526004016107e190612355565b805181602001fd5b6001600160e01b031916630a85bd0160e11b149050611629565b506001949350505050565b600880546000838152600960205260408120829055600182018355919091527ff3f7a9fe364faab93b216da50a3214154f22a0a2b415b23a84c8169e8b636ee30155565b60006001611b6884610c78565b611b729190612a77565b600083815260076020526040902054909150808214611bc5576001600160a01b03841660009081526006602090815260408083208584528252808320548484528184208190558352600790915290208190555b5060009182526007602090815260408084208490556001600160a01b039094168352600681528383209183525290812055565b600854600090611c0a90600190612a77565b60008381526009602052604081205460088054939450909284908110611c4057634e487b7160e01b600052603260045260246000fd5b906000526020600020015490508060088381548110611c6f57634e487b7160e01b600052603260045260246000fd5b6000918252602080832090910192909255828152600990915260408082208490558582528120556008805480611cb557634e487b7160e01b600052603160045260246000fd5b6001900381819060005260206000200160009055905550505050565b6000611cdc83610c78565b6001600160a01b039093166000908152600660209081526040808320868452825280832085905593825260079052919091209190915550565b6001600160a01b038216611d3b5760405162461bcd60e51b81526004016107e19061263b565b611d448161151d565b15611d615760405162461bcd60e51b81526004016107e1906123ed565b611d6d60008383611940565b6001600160a01b0382166000908152600360205260408120805460019290611d96908490612a2c565b909155505060008181526002602052604080822080546001600160a01b0319166001600160a01b03861690811790915590518392907fddf252ad1be2c89b69c2b068fc378daa952ba7f163c4a11628f55a4df523b3ef908290a45050565b3b151590565b828054611e0690612aba565b90600052602060002090601f016020900481019282611e285760008555611e6e565b82601f10611e4157805160ff1916838001178555611e6e565b82800160010185558215611e6e579182015b82811115611e6e578251825591602001919060010190611e53565b50611e7a929150611e7e565b5090565b5b80821115611e7a5760008155600101611e7f565b600067ffffffffffffffff80841115611eae57611eae612b50565b604051601f8501601f191681016020018281118282101715611ed257611ed2612b50565b604052848152915081838501861015611eea57600080fd5b8484602083013760006020868301015250509392505050565b80356001600160a01b038116811461072357600080fd5b8035801515811461072357600080fd5b600060208284031215611f3b578081fd5b61141082611f03565b60008060408385031215611f56578081fd5b611f5f83611f03565b9150611f6d60208401611f03565b90509250929050565b600080600060608486031215611f8a578081fd5b611f9384611f03565b9250611fa160208501611f03565b9150604084013590509250925092565b60008060008060808587031215611fc6578081fd5b611fcf85611f03565b9350611fdd60208601611f03565b925060408501359150606085013567ffffffffffffffff811115611fff578182fd5b8501601f8101871361200f578182fd5b61201e87823560208401611e93565b91505092959194509250565b6000806040838503121561203c578182fd5b61204583611f03565b9150611f6d60208401611f1a565b60008060408385031215612065578182fd5b61206e83611f03565b946020939093013593505050565b6000806020838503121561208e578182fd5b823567ffffffffffffffff808211156120a5578384fd5b818501915085601f8301126120b8578384fd5b8135818111156120c6578485fd5b86602080830285010111156120d9578485fd5b60209290920196919550909350505050565b6000602082840312156120fc578081fd5b61141082611f1a565b600060208284031215612116578081fd5b813561141081612b66565b600060208284031215612132578081fd5b815161141081612b66565b60006020828403121561214e578081fd5b813567ffffffffffffffff811115612164578182fd5b8201601f81018413612174578182fd5b61162984823560208401611e93565b600060208284031215612194578081fd5b5035919050565b600081518084526121b3816020860160208601612a8e565b601f01601f19169290920160200192915050565b600083516121d9818460208801612a8e565b8351908301906121ed818360208801612a8e565b01949350505050565b6001600160a01b0391909116815260200190565b6001600160a01b038581168252841660208201526040810183905260806060820181905260009061223d9083018461219b565b9695505050505050565b901515815260200190565b600060208252611410602083018461219b565b60208082526018908201527f416c6c6f77204c697374206973206e6f74206163746976650000000000000000604082015260600190565b6020808252601d908201527f596f7520617265206e6f74206f6e2074686520416c6c6f77204c697374000000604082015260600190565b6020808252601d908201527f53616c65206973206e6f74206163746976652063757272656e746c792e000000604082015260600190565b6020808252602b908201527f455243373231456e756d657261626c653a206f776e657220696e646578206f7560408201526a74206f6620626f756e647360a81b606082015260800190565b60208082526032908201527f4552433732313a207472616e7366657220746f206e6f6e20455243373231526560408201527131b2b4bb32b91034b6b83632b6b2b73a32b960711b606082015260800190565b60208082526026908201527f4f776e61626c653a206e6577206f776e657220697320746865207a65726f206160408201526564647265737360d01b606082015260800190565b6020808252601c908201527f4552433732313a20746f6b656e20616c7265616479206d696e74656400000000604082015260600190565b60208082526018908201527f4d617820686f6c64696e672063617020726561636865642e0000000000000000604082015260600190565b6020808252600f908201526e29b0b632903430b99032b73232b21760891b604082015260600190565b60208082526024908201527f4552433732313a207472616e7366657220746f20746865207a65726f206164646040820152637265737360e01b606082015260800190565b60208082526019908201527f4552433732313a20617070726f766520746f2063616c6c657200000000000000604082015260600190565b6020808252602c908201527f4552433732313a206f70657261746f7220717565727920666f72206e6f6e657860408201526b34b9ba32b73a103a37b5b2b760a11b606082015260800190565b60208082526038908201527f4552433732313a20617070726f76652063616c6c6572206973206e6f74206f7760408201527f6e6572206e6f7220617070726f76656420666f7220616c6c0000000000000000606082015260800190565b6020808252602a908201527f4552433732313a2062616c616e636520717565727920666f7220746865207a65604082015269726f206164647265737360b01b606082015260800190565b60208082526029908201527f4552433732313a206f776e657220717565727920666f72206e6f6e657869737460408201526832b73a103a37b5b2b760b91b606082015260800190565b6020808252818101527f4552433732313a206d696e7420746f20746865207a65726f2061646472657373604082015260600190565b6020808252602c908201527f4552433732313a20617070726f76656420717565727920666f72206e6f6e657860408201526b34b9ba32b73a103a37b5b2b760a11b606082015260800190565b60208082526018908201527f43616e2774206164642061206e756c6c20616464726573730000000000000000604082015260600190565b6020808252818101527f4f776e61626c653a2063616c6c6572206973206e6f7420746865206f776e6572604082015260600190565b60208082526029908201527f4552433732313a207472616e73666572206f6620746f6b656e2074686174206960408201526839903737ba1037bbb760b91b606082015260800190565b6020808252602f908201527f4552433732314d657461646174613a2055524920717565727920666f72206e6f60408201526e3732bc34b9ba32b73a103a37b5b2b760891b606082015260800190565b6020808252601e908201527f45786365656473206d6178696d756d20616c6c6f77656420746f6b656e730000604082015260600190565b60208082526021908201527f4552433732313a20617070726f76616c20746f2063757272656e74206f776e656040820152603960f91b606082015260800190565b6020808252601690820152752a37ba30b61039bab838363c9032bc31b2b2b232b21760511b604082015260600190565b60208082526031908201527f4552433732313a207472616e736665722063616c6c6572206973206e6f74206f6040820152701ddb995c881b9bdc88185c1c1c9bdd9959607a1b606082015260800190565b6020808252602c908201527f455243373231456e756d657261626c653a20676c6f62616c20696e646578206f60408201526b7574206f6620626f756e647360a01b606082015260800190565b6020808252601390820152722a37ba30b61039bab838363c9039b832b73a1760691b604082015260600190565b6020808252601b908201527f496e7375666669656e742045544820616d6f756e742073656e742e0000000000604082015260600190565b6020808252601c908201527f50757263686173652065786365656473206d617820616c6c6f77656400000000604082015260600190565b6020808252601b908201527f416c6c20746f6b656e732068617665206265656e206d696e7465640000000000604082015260600190565b6020808252818101527f43616e6e6f742070757263686173652074686973206d616e7920746f6b656e73604082015260600190565b90815260200190565b9182526001600160a01b0316602082015260400190565b60008219821115612a3f57612a3f612b24565b500190565b600082612a5357612a53612b3a565b500490565b6000816000190483118215151615612a7257612a72612b24565b500290565b600082821015612a8957612a89612b24565b500390565b60005b83811015612aa9578181015183820152602001612a91565b8381111561138e5750506000910152565b600281046001821680612ace57607f821691505b60208210811415612aef57634e487b7160e01b600052602260045260246000fd5b50919050565b6000600019821415612b0957612b09612b24565b5060010190565b600082612b1f57612b1f612b3a565b500690565b634e487b7160e01b600052601160045260246000fd5b634e487b7160e01b600052601260045260246000fd5b634e487b7160e01b600052604160045260246000fd5b6001600160e01b0319811681146114da57600080fdfea2646970667358221220b5593cc8a507b331a90290c2ee011327d40e19f7e89fd64d562cdfaab17ab4a264736f6c63430008000033",
  "immutableReferences": {},
  "source": "// SPDX-License-Identifier: MIT\n\npragma solidity ^0.8.0;\n\nimport \"@openzeppelin/contracts/token/ERC721/extensions/ERC721Enumerable.sol\";\nimport \"@openzeppelin/contracts/access/Ownable.sol\";\n\ncontract Web3ReactBoilerplate is ERC721Enumerable, Ownable {\n  uint256 public mintPrice = 0.2777 ether;\n  uint256 public presalePrice = 0.1777 ether;\n\n  string _baseTokenURI;\n\n  bool public isActive = false;\n  bool public isAllowListActive = false;\n\n  uint256 public maximumMintSupply = 7777;\n  uint256 public maximumAllowedTokensPerPurchase = 3;\n  uint256 public maximumAllowedTokensPerWallet = 7;\n  uint256 public allowListMaxMint = 3;\n\n  mapping(address => bool) private _allowList;\n  mapping(address => uint256) private _allowListClaimed;\n\n  event AssetMinted(uint256 tokenId, address sender);\n  event SaleActivation(bool isActive);\n\n  constructor(string memory baseURI) ERC721(\"Web3 React Boilerplate\", \"WRB\") {\n    setBaseURI(baseURI);\n  }\n\n  modifier saleIsOpen {\n    require(totalSupply() <= maximumMintSupply, \"Sale has ended.\");\n    _;\n  }\n\n  modifier onlyAuthorized() {\n    require(owner() == msg.sender);\n    _;\n  }\n\n  function setMaximumAllowedTokens(uint256 _count) public onlyAuthorized {\n    maximumAllowedTokensPerPurchase = _count;\n  }\n\n  function setMaximumAllowedTokensPerWallet(uint256 _count) public onlyAuthorized {\n    maximumAllowedTokensPerWallet = _count;\n  }\n\n  function setActive(bool val) public onlyAuthorized {\n    isActive = val;\n    emit SaleActivation(val);\n  }\n\n  function setIsAllowListActive(bool _isAllowListActive) external onlyAuthorized {\n    isAllowListActive = _isAllowListActive;\n  }\n\n  function setAllowListMaxMint(uint256 maxMint) external  onlyAuthorized {\n    allowListMaxMint = maxMint;\n  }\n\n  function addToAllowList(address[] calldata addresses) external onlyAuthorized {\n    for (uint256 i = 0; i < addresses.length; i++) {\n      require(addresses[i] != address(0), \"Can't add a null address\");\n      _allowList[addresses[i]] = true;\n      _allowListClaimed[addresses[i]] > 0 ? _allowListClaimed[addresses[i]] : 0;\n    }\n  }\n\n  function checkIfOnAllowList(address addr) external view returns (bool) {\n    return _allowList[addr];\n  }\n\n  function removeFromAllowList(address[] calldata addresses) external onlyAuthorized {\n    for (uint256 i = 0; i < addresses.length; i++) {\n      require(addresses[i] != address(0), \"Can't add a null address\");\n      _allowList[addresses[i]] = false;\n    }\n  }\n\n  function setPrice(uint256 _price) public onlyAuthorized {\n    mintPrice = _price;\n  }\n\n  function setPresalePrice(uint256 _price) public onlyAuthorized {\n    presalePrice = _price;\n  }\n\n  function setBaseURI(string memory baseURI) public onlyAuthorized {\n    _baseTokenURI = baseURI;\n  }\n\n  function getContractOwner() public view returns (address) {\n    return owner();\n  }\n\n  function _baseURI() internal view virtual override returns (string memory) {\n    return _baseTokenURI;\n  }\n\n\n  function mint(address _to, uint256 _count) public payable saleIsOpen {\n    if (msg.sender != owner()) {\n      require(isActive, \"Sale is not active currently.\");\n    }\n\n    if(_to != owner()) {\n      require(balanceOf(_to) + _count <= maximumAllowedTokensPerWallet, \"Max holding cap reached.\");\n    }\n\n    require(totalSupply() + _count <= maximumMintSupply, \"Total supply exceeded.\");\n    require(totalSupply() <= maximumMintSupply, \"Total supply spent.\");\n    require(\n      _count <= maximumAllowedTokensPerPurchase,\n      \"Exceeds maximum allowed tokens\"\n    );\n    require(msg.value >= mintPrice * _count, \"Insuffient ETH amount sent.\");\n\n    for (uint256 i = 0; i < _count; i++) {\n      emit AssetMinted(totalSupply(), _to);\n      _safeMint(_to, totalSupply());\n    }\n  }\n\n  function preSaleMint(uint256 _count) public payable saleIsOpen {\n    require(isAllowListActive, 'Allow List is not active');\n    require(_allowList[msg.sender], 'You are not on the Allow List');\n    require(totalSupply() < maximumMintSupply, 'All tokens have been minted');\n    require(_count <= allowListMaxMint, 'Cannot purchase this many tokens');\n    require(_allowListClaimed[msg.sender] + _count <= allowListMaxMint, 'Purchase exceeds max allowed');\n    require(msg.value >= presalePrice * _count, 'Insuffient ETH amount sent.');\n\n    for (uint256 i = 0; i < _count; i++) {\n      _allowListClaimed[msg.sender] += 1;\n      emit AssetMinted(totalSupply(), msg.sender);\n      _safeMint(msg.sender, totalSupply());\n    }\n  }\n\n}",
  "sourcePath": "/Users/arman/Desktop/Projects/smart-contract/dangerousDinos/contracts/Web3ReactBoilerplate.sol",
  "compiler": {
    "name": "solc",
    "version": "0.8.0+commit.c7dfd78e.Emscripten.clang"
  },
  "schemaVersion": "3.4.3",
  "updatedAt": "2021-12-24T16:18:22.554Z",
  "devdoc": {
    "kind": "dev",
    "methods": {
      "approve(address,uint256)": {
        "details": "See {IERC721-approve}."
      },
      "balanceOf(address)": {
        "details": "See {IERC721-balanceOf}."
      },
      "getApproved(uint256)": {
        "details": "See {IERC721-getApproved}."
      },
      "isApprovedForAll(address,address)": {
        "details": "See {IERC721-isApprovedForAll}."
      },
      "name()": {
        "details": "See {IERC721Metadata-name}."
      },
      "owner()": {
        "details": "Returns the address of the current owner."
      },
      "ownerOf(uint256)": {
        "details": "See {IERC721-ownerOf}."
      },
      "renounceOwnership()": {
        "details": "Leaves the contract without owner. It will not be possible to call `onlyOwner` functions anymore. Can only be called by the current owner. NOTE: Renouncing ownership will leave the contract without an owner, thereby removing any functionality that is only available to the owner."
      },
      "safeTransferFrom(address,address,uint256)": {
        "details": "See {IERC721-safeTransferFrom}."
      },
      "safeTransferFrom(address,address,uint256,bytes)": {
        "details": "See {IERC721-safeTransferFrom}."
      },
      "setApprovalForAll(address,bool)": {
        "details": "See {IERC721-setApprovalForAll}."
      },
      "supportsInterface(bytes4)": {
        "details": "See {IERC165-supportsInterface}."
      },
      "symbol()": {
        "details": "See {IERC721Metadata-symbol}."
      },
      "tokenByIndex(uint256)": {
        "details": "See {IERC721Enumerable-tokenByIndex}."
      },
      "tokenOfOwnerByIndex(address,uint256)": {
        "details": "See {IERC721Enumerable-tokenOfOwnerByIndex}."
      },
      "tokenURI(uint256)": {
        "details": "See {IERC721Metadata-tokenURI}."
      },
      "totalSupply()": {
        "details": "See {IERC721Enumerable-totalSupply}."
      },
      "transferFrom(address,address,uint256)": {
        "details": "See {IERC721-transferFrom}."
      },
      "transferOwnership(address)": {
        "details": "Transfers ownership of the contract to a new account (`newOwner`). Can only be called by the current owner."
      }
    },
    "version": 1
  },
  "userdoc": {
    "kind": "user",
    "methods": {},
    "version": 1
  }
}